{
  "_format": "hh-sol-artifact-1",
  "contractName": "SpartanSwapUtils",
  "sourceName": "contracts/DApp/SpartanSwap-Utils.sol",
  "abi": [
    {
      "inputs": [
        {
          "internalType": "address",
          "name": "_spartaAddr",
          "type": "address"
        },
        {
          "internalType": "address",
          "name": "_wbnb",
          "type": "address"
        }
      ],
      "stateMutability": "nonpayable",
      "type": "constructor"
    },
    {
      "inputs": [
        {
          "internalType": "uint256",
          "name": "",
          "type": "uint256"
        }
      ],
      "name": "bondedPools",
      "outputs": [
        {
          "internalType": "address",
          "name": "",
          "type": "address"
        }
      ],
      "stateMutability": "view",
      "type": "function"
    },
    {
      "inputs": [
        {
          "internalType": "address",
          "name": "userAddr",
          "type": "address"
        }
      ],
      "name": "getBondDetails",
      "outputs": [
        {
          "components": [
            {
              "internalType": "address",
              "name": "poolAddress",
              "type": "address"
            },
            {
              "internalType": "uint256",
              "name": "bondedTotal",
              "type": "uint256"
            },
            {
              "internalType": "uint256",
              "name": "bondedMember",
              "type": "uint256"
            },
            {
              "internalType": "uint256",
              "name": "lastBlockTime",
              "type": "uint256"
            },
            {
              "internalType": "uint256",
              "name": "claimRate",
              "type": "uint256"
            },
            {
              "internalType": "bool",
              "name": "isMember",
              "type": "bool"
            }
          ],
          "internalType": "struct SpartanSwapUtils.BondDetails[]",
          "name": "returnData",
          "type": "tuple[]"
        }
      ],
      "stateMutability": "view",
      "type": "function"
    },
    {
      "inputs": [],
      "name": "getBondVaultAddr",
      "outputs": [
        {
          "internalType": "address",
          "name": "",
          "type": "address"
        }
      ],
      "stateMutability": "view",
      "type": "function"
    },
    {
      "inputs": [],
      "name": "getCircSupply",
      "outputs": [
        {
          "internalType": "uint256",
          "name": "circSupply",
          "type": "uint256"
        }
      ],
      "stateMutability": "view",
      "type": "function"
    },
    {
      "inputs": [],
      "name": "getCuratedPools",
      "outputs": [
        {
          "internalType": "address[]",
          "name": "",
          "type": "address[]"
        }
      ],
      "stateMutability": "view",
      "type": "function"
    },
    {
      "inputs": [],
      "name": "getDaoAddr",
      "outputs": [
        {
          "internalType": "address",
          "name": "",
          "type": "address"
        }
      ],
      "stateMutability": "view",
      "type": "function"
    },
    {
      "inputs": [
        {
          "internalType": "address",
          "name": "userAddr",
          "type": "address"
        },
        {
          "internalType": "address[]",
          "name": "pools",
          "type": "address[]"
        }
      ],
      "name": "getDaoDetails",
      "outputs": [
        {
          "components": [
            {
              "internalType": "address",
              "name": "poolAddress",
              "type": "address"
            },
            {
              "internalType": "uint256",
              "name": "staked",
              "type": "uint256"
            },
            {
              "internalType": "uint256",
              "name": "globalStaked",
              "type": "uint256"
            }
          ],
          "internalType": "struct SpartanSwapUtils.DaoDetails[]",
          "name": "returnData",
          "type": "tuple[]"
        }
      ],
      "stateMutability": "view",
      "type": "function"
    },
    {
      "inputs": [],
      "name": "getDaoGlobalDetails",
      "outputs": [
        {
          "components": [
            {
              "internalType": "bool",
              "name": "running",
              "type": "bool"
            },
            {
              "internalType": "uint256",
              "name": "coolOffPeriod",
              "type": "uint256"
            },
            {
              "internalType": "uint256",
              "name": "erasToEarn",
              "type": "uint256"
            },
            {
              "internalType": "uint256",
              "name": "daoClaim",
              "type": "uint256"
            },
            {
              "internalType": "uint256",
              "name": "daoFee",
              "type": "uint256"
            },
            {
              "internalType": "uint256",
              "name": "currentProposal",
              "type": "uint256"
            },
            {
              "internalType": "uint256",
              "name": "cancelPeriod",
              "type": "uint256"
            }
          ],
          "internalType": "struct SpartanSwapUtils.DaoGlobalDetails[]",
          "name": "returnData",
          "type": "tuple[]"
        }
      ],
      "stateMutability": "view",
      "type": "function"
    },
    {
      "inputs": [],
      "name": "getDaoVaultAddr",
      "outputs": [
        {
          "internalType": "address",
          "name": "",
          "type": "address"
        }
      ],
      "stateMutability": "view",
      "type": "function"
    },
    {
      "inputs": [],
      "name": "getGlobalDetails",
      "outputs": [
        {
          "components": [
            {
              "internalType": "bool",
              "name": "emitting",
              "type": "bool"
            },
            {
              "internalType": "bool",
              "name": "emissions",
              "type": "bool"
            },
            {
              "internalType": "bool",
              "name": "globalFreeze",
              "type": "bool"
            },
            {
              "internalType": "uint256",
              "name": "totalSupply",
              "type": "uint256"
            },
            {
              "internalType": "uint256",
              "name": "secondsPerEra",
              "type": "uint256"
            },
            {
              "internalType": "uint256",
              "name": "deadSupply",
              "type": "uint256"
            },
            {
              "internalType": "uint256",
              "name": "spartaBalance",
              "type": "uint256"
            }
          ],
          "internalType": "struct SpartanSwapUtils.GlobalDetails[]",
          "name": "returnData",
          "type": "tuple[]"
        }
      ],
      "stateMutability": "view",
      "type": "function"
    },
    {
      "inputs": [],
      "name": "getInternalPrice",
      "outputs": [
        {
          "internalType": "uint256",
          "name": "internalPrice",
          "type": "uint256"
        }
      ],
      "stateMutability": "view",
      "type": "function"
    },
    {
      "inputs": [],
      "name": "getListedPools",
      "outputs": [
        {
          "internalType": "address[]",
          "name": "",
          "type": "address[]"
        }
      ],
      "stateMutability": "view",
      "type": "function"
    },
    {
      "inputs": [],
      "name": "getListedTokens",
      "outputs": [
        {
          "internalType": "address[]",
          "name": "",
          "type": "address[]"
        }
      ],
      "stateMutability": "view",
      "type": "function"
    },
    {
      "inputs": [
        {
          "internalType": "address",
          "name": "userAddr",
          "type": "address"
        },
        {
          "internalType": "address[]",
          "name": "tokens",
          "type": "address[]"
        }
      ],
      "name": "getPoolDetails",
      "outputs": [
        {
          "components": [
            {
              "internalType": "bool",
              "name": "frozen",
              "type": "bool"
            },
            {
              "internalType": "uint256",
              "name": "genesis",
              "type": "uint256"
            },
            {
              "internalType": "uint256",
              "name": "baseAmount",
              "type": "uint256"
            },
            {
              "internalType": "uint256",
              "name": "tokenAmount",
              "type": "uint256"
            },
            {
              "internalType": "uint256",
              "name": "totalSupply",
              "type": "uint256"
            },
            {
              "internalType": "uint256",
              "name": "baseCap",
              "type": "uint256"
            },
            {
              "internalType": "uint256",
              "name": "balance",
              "type": "uint256"
            },
            {
              "internalType": "uint256",
              "name": "oldRate",
              "type": "uint256"
            },
            {
              "internalType": "address",
              "name": "poolAddress",
              "type": "address"
            }
          ],
          "internalType": "struct SpartanSwapUtils.PoolDetails[]",
          "name": "returnData",
          "type": "tuple[]"
        }
      ],
      "stateMutability": "view",
      "type": "function"
    },
    {
      "inputs": [],
      "name": "getPoolFactoryAddr",
      "outputs": [
        {
          "internalType": "address",
          "name": "",
          "type": "address"
        }
      ],
      "stateMutability": "view",
      "type": "function"
    },
    {
      "inputs": [],
      "name": "getReserveAddr",
      "outputs": [
        {
          "internalType": "address",
          "name": "",
          "type": "address"
        }
      ],
      "stateMutability": "view",
      "type": "function"
    },
    {
      "inputs": [],
      "name": "getReserveHoldings",
      "outputs": [
        {
          "components": [
            {
              "internalType": "address",
              "name": "poolAddress",
              "type": "address"
            },
            {
              "internalType": "uint256",
              "name": "poolTotalSupply",
              "type": "uint256"
            },
            {
              "internalType": "uint256",
              "name": "poolBaseAmount",
              "type": "uint256"
            },
            {
              "internalType": "uint256",
              "name": "poolTokenAmount",
              "type": "uint256"
            },
            {
              "internalType": "uint256",
              "name": "resBalance",
              "type": "uint256"
            },
            {
              "internalType": "uint256",
              "name": "resSparta",
              "type": "uint256"
            },
            {
              "internalType": "uint256",
              "name": "resTokens",
              "type": "uint256"
            }
          ],
          "internalType": "struct SpartanSwapUtils.ReserveDetails[]",
          "name": "returnData",
          "type": "tuple[]"
        }
      ],
      "stateMutability": "view",
      "type": "function"
    },
    {
      "inputs": [
        {
          "internalType": "address",
          "name": "userAddr",
          "type": "address"
        },
        {
          "internalType": "address[]",
          "name": "tokens",
          "type": "address[]"
        }
      ],
      "name": "getSynthDetails",
      "outputs": [
        {
          "components": [
            {
              "internalType": "address",
              "name": "synthAddress",
              "type": "address"
            },
            {
              "internalType": "uint256",
              "name": "balance",
              "type": "uint256"
            },
            {
              "internalType": "uint256",
              "name": "staked",
              "type": "uint256"
            },
            {
              "internalType": "uint256",
              "name": "collateral",
              "type": "uint256"
            },
            {
              "internalType": "uint256",
              "name": "totalSupply",
              "type": "uint256"
            }
          ],
          "internalType": "struct SpartanSwapUtils.SynthDetails[]",
          "name": "returnData",
          "type": "tuple[]"
        }
      ],
      "stateMutability": "view",
      "type": "function"
    },
    {
      "inputs": [],
      "name": "getSynthFactoryAddr",
      "outputs": [
        {
          "internalType": "address",
          "name": "",
          "type": "address"
        }
      ],
      "stateMutability": "view",
      "type": "function"
    },
    {
      "inputs": [],
      "name": "getSynthVaultAddr",
      "outputs": [
        {
          "internalType": "address",
          "name": "",
          "type": "address"
        }
      ],
      "stateMutability": "view",
      "type": "function"
    },
    {
      "inputs": [
        {
          "internalType": "address[]",
          "name": "poolAddresses",
          "type": "address[]"
        }
      ],
      "name": "getTVL",
      "outputs": [
        {
          "internalType": "uint256",
          "name": "tvlSPARTA",
          "type": "uint256"
        }
      ],
      "stateMutability": "view",
      "type": "function"
    },
    {
      "inputs": [],
      "name": "getTVLUnbounded",
      "outputs": [
        {
          "internalType": "uint256",
          "name": "tvlSPARTA",
          "type": "uint256"
        }
      ],
      "stateMutability": "view",
      "type": "function"
    },
    {
      "inputs": [
        {
          "internalType": "address",
          "name": "userAddr",
          "type": "address"
        },
        {
          "internalType": "address[]",
          "name": "tokens",
          "type": "address[]"
        }
      ],
      "name": "getTokenDetails",
      "outputs": [
        {
          "components": [
            {
              "internalType": "uint256",
              "name": "decimals",
              "type": "uint256"
            },
            {
              "internalType": "uint256",
              "name": "balance",
              "type": "uint256"
            },
            {
              "internalType": "string",
              "name": "symbol",
              "type": "string"
            }
          ],
          "internalType": "struct SpartanSwapUtils.TokenDetails[]",
          "name": "returnData",
          "type": "tuple[]"
        }
      ],
      "stateMutability": "view",
      "type": "function"
    },
    {
      "inputs": [],
      "name": "getTotalSupply",
      "outputs": [
        {
          "internalType": "uint256",
          "name": "totalSupply",
          "type": "uint256"
        }
      ],
      "stateMutability": "view",
      "type": "function"
    },
    {
      "inputs": [
        {
          "internalType": "uint256",
          "name": "",
          "type": "uint256"
        }
      ],
      "name": "reserveHeldPools",
      "outputs": [
        {
          "internalType": "address",
          "name": "",
          "type": "address"
        }
      ],
      "stateMutability": "view",
      "type": "function"
    },
    {
      "inputs": [
        {
          "internalType": "address[]",
          "name": "bondPoolArray",
          "type": "address[]"
        }
      ],
      "name": "setBondPoolArray",
      "outputs": [],
      "stateMutability": "nonpayable",
      "type": "function"
    },
    {
      "inputs": [
        {
          "internalType": "address[]",
          "name": "reservePoolArray",
          "type": "address[]"
        }
      ],
      "name": "setReservePoolArray",
      "outputs": [],
      "stateMutability": "nonpayable",
      "type": "function"
    },
    {
      "inputs": [
        {
          "internalType": "address[]",
          "name": "stablePoolArray",
          "type": "address[]"
        }
      ],
      "name": "setStablePoolArray",
      "outputs": [],
      "stateMutability": "nonpayable",
      "type": "function"
    },
    {
      "inputs": [],
      "name": "sparta",
      "outputs": [
        {
          "internalType": "address",
          "name": "",
          "type": "address"
        }
      ],
      "stateMutability": "view",
      "type": "function"
    },
    {
      "inputs": [
        {
          "internalType": "uint256",
          "name": "",
          "type": "uint256"
        }
      ],
      "name": "stableCoinPools",
      "outputs": [
        {
          "internalType": "address",
          "name": "",
          "type": "address"
        }
      ],
      "stateMutability": "view",
      "type": "function"
    },
    {
      "inputs": [],
      "name": "wbnb",
      "outputs": [
        {
          "internalType": "address",
          "name": "",
          "type": "address"
        }
      ],
      "stateMutability": "view",
      "type": "function"
    }
  ],
  "bytecode": "0x60e06040523480156200001157600080fd5b506040516200614838038062006148833981810160405281019062000037919062000145565b8173ffffffffffffffffffffffffffffffffffffffff1660808173ffffffffffffffffffffffffffffffffffffffff16815250508073ffffffffffffffffffffffffffffffffffffffff1660a08173ffffffffffffffffffffffffffffffffffffffff16815250503373ffffffffffffffffffffffffffffffffffffffff1660c08173ffffffffffffffffffffffffffffffffffffffff168152505050506200018c565b600080fd5b600073ffffffffffffffffffffffffffffffffffffffff82169050919050565b60006200010d82620000e0565b9050919050565b6200011f8162000100565b81146200012b57600080fd5b50565b6000815190506200013f8162000114565b92915050565b600080604083850312156200015f576200015e620000db565b5b60006200016f858286016200012e565b925050602062000182858286016200012e565b9150509250929050565b60805160a05160c051615e89620002bf60003960008181611dd401528181611e780152612363015260008181612b1e01528181614082015261428701526000818161062c015281816106c2015281816107d0015281816108d101528181610d7401528181610eeb01528181610ff101528181611167015281816112050152818161129d0152818161133501528181611458015281816114940152818161167c01528181611781015281816118ff01528181611a7401528181611f20015281816122610152818161240b01528181612879015281816129a901528181612b4201528181612b6801528181612ba401528181612cfe01528181612d9a0152818161301b0152818161339001528181613494015281816135300152818161363b015281816143d501526144d90152615e896000f3fe608060405234801561001057600080fd5b50600436106101e55760003560e01c8063785b87d41161010f578063bbef57d9116100a2578063e002566411610071578063e00256641461059e578063e10fb9d9146105bc578063ed37a997146105ec578063edc01fd81461060a576101e5565b8063bbef57d914610502578063c4e41b2214610520578063c696a4231461053e578063dc97ca531461056e576101e5565b80638e1d6d68116100de5780638e1d6d6814610478578063b0c22f8d14610496578063b76ff47c146104b4578063b801ae58146104d2576101e5565b8063785b87d4146103dc57806384f3700b1461040c578063855304d21461043c5780638d72647e1461045a576101e5565b8063448ea5cc1161018757806368860f391161015657806368860f391461035457806369ebdf8f146103845780636bf2ad9f146103a2578063744d0530146103be576101e5565b8063448ea5cc146102ce57806352df87c5146102ec5780635651c18f1461031c57806358d021a614610338576101e5565b80632ba996a5116101c35780632ba996a514610256578063307411a414610274578063389b7b5b1461029257806340651da3146102b0576101e5565b80630af04f98146101ea5780631f4d5b001461020857806329db7f3f14610226575b600080fd5b6101f2610628565b6040516101ff919061496e565b60405180910390f35b6102106106be565b60405161021d919061496e565b60405180910390f35b610240600480360381019061023b9190614a2e565b6107c2565b60405161024d9190614bcd565b60405180910390f35b61025e610d70565b60405161026b9190614c9e565b60405180910390f35b61027c610ee7565b604051610289919061496e565b60405180910390f35b61029a610feb565b6040516102a79190614e18565b60405180910390f35b6102b8611678565b6040516102c5919061496e565b60405180910390f35b6102d661177c565b6040516102e39190614e49565b60405180910390f35b61030660048036038101906103019190614e64565b6119dd565b6040516103139190614fbb565b60405180910390f35b61033660048036038101906103319190614fdd565b611dd2565b005b610352600480360381019061034d9190614fdd565b611e76565b005b61036e60048036038101906103699190614a2e565b611f1a565b60405161037b919061511b565b60405180910390f35b61038c61225d565b604051610399919061496e565b60405180910390f35b6103bc60048036038101906103b79190614fdd565b612361565b005b6103c6612405565b6040516103d3919061527a565b60405180910390f35b6103f660048036038101906103f19190614fdd565b612864565b6040516104039190614e49565b60405180910390f35b610426600480360381019061042191906152c8565b612966565b604051610433919061496e565b60405180910390f35b6104446129a5565b6040516104519190614c9e565b60405180910390f35b610462612b1c565b60405161046f919061496e565b60405180910390f35b610480612b40565b60405161048d919061496e565b60405180910390f35b61049e612b64565b6040516104ab9190614e49565b60405180910390f35b6104bc612e91565b6040516104c99190615432565b60405180910390f35b6104ec60048036038101906104e791906152c8565b61334d565b6040516104f9919061496e565b60405180910390f35b61050a61338c565b604051610517919061496e565b60405180910390f35b610528613490565b6040516105359190614e49565b60405180910390f35b61055860048036038101906105539190614a2e565b6135cc565b60405161056591906155bb565b60405180910390f35b610588600480360381019061058391906152c8565b613c4c565b604051610595919061496e565b60405180910390f35b6105a6613c8b565b6040516105b39190614e49565b60405180910390f35b6105d660048036038101906105d19190614a2e565b613fca565b6040516105e3919061577f565b60405180910390f35b6105f46143d1565b604051610601919061496e565b60405180910390f35b6106126144d5565b60405161061f9190614c9e565b60405180910390f35b60007f000000000000000000000000000000000000000000000000000000000000000073ffffffffffffffffffffffffffffffffffffffff166398fabd3a6040518163ffffffff1660e01b8152600401602060405180830381865afa158015610695573d6000803e3d6000fd5b505050506040513d601f19601f820116820180604052508101906106b991906157b6565b905090565b60007f000000000000000000000000000000000000000000000000000000000000000073ffffffffffffffffffffffffffffffffffffffff166398fabd3a6040518163ffffffff1660e01b8152600401602060405180830381865afa15801561072b573d6000803e3d6000fd5b505050506040513d601f19601f8201168201806040525081019061074f91906157b6565b73ffffffffffffffffffffffffffffffffffffffff1663b99b0a0c6040518163ffffffff1660e01b8152600401602060405180830381865afa158015610799573d6000803e3d6000fd5b505050506040513d601f19601f820116820180604052508101906107bd91906157b6565b905090565b6060600083839050905060007f000000000000000000000000000000000000000000000000000000000000000073ffffffffffffffffffffffffffffffffffffffff166398fabd3a6040518163ffffffff1660e01b8152600401602060405180830381865afa158015610839573d6000803e3d6000fd5b505050506040513d601f19601f8201168201806040525081019061085d91906157b6565b73ffffffffffffffffffffffffffffffffffffffff1663b93ec54b6040518163ffffffff1660e01b8152600401602060405180830381865afa1580156108a7573d6000803e3d6000fd5b505050506040513d601f19601f820116820180604052508101906108cb91906157b6565b905060007f000000000000000000000000000000000000000000000000000000000000000073ffffffffffffffffffffffffffffffffffffffff166398fabd3a6040518163ffffffff1660e01b8152600401602060405180830381865afa15801561093a573d6000803e3d6000fd5b505050506040513d601f19601f8201168201806040525081019061095e91906157b6565b73ffffffffffffffffffffffffffffffffffffffff16632ab24e496040518163ffffffff1660e01b8152600401602060405180830381865afa1580156109a8573d6000803e3d6000fd5b505050506040513d601f19601f820116820180604052508101906109cc91906157b6565b90508267ffffffffffffffff8111156109e8576109e76157e3565b5b604051908082528060200260200182016040528015610a2157816020015b610a0e61464c565b815260200190600190039081610a065790505b50935060005b83811015610d655760008373ffffffffffffffffffffffffffffffffffffffff1663dcec8116898985818110610a6057610a5f615812565b5b9050602002016020810190610a759190614e64565b6040518263ffffffff1660e01b8152600401610a91919061496e565b602060405180830381865afa158015610aae573d6000803e3d6000fd5b505050506040513d601f19601f82011682018060405250810190610ad291906157b6565b90506000868381518110610ae957610ae8615812565b5b6020026020010151905081816000019073ffffffffffffffffffffffffffffffffffffffff16908173ffffffffffffffffffffffffffffffffffffffff16815250508173ffffffffffffffffffffffffffffffffffffffff1663d8dfeb456040518163ffffffff1660e01b8152600401602060405180830381865afa158015610b76573d6000803e3d6000fd5b505050506040513d601f19601f82011682018060405250810190610b9a9190615856565b8160600181815250508173ffffffffffffffffffffffffffffffffffffffff166318160ddd6040518163ffffffff1660e01b8152600401602060405180830381865afa158015610bee573d6000803e3d6000fd5b505050506040513d601f19601f82011682018060405250810190610c129190615856565b816080018181525050600073ffffffffffffffffffffffffffffffffffffffff168a73ffffffffffffffffffffffffffffffffffffffff1614610d58578173ffffffffffffffffffffffffffffffffffffffff166370a082318b6040518263ffffffff1660e01b8152600401610c88919061496e565b602060405180830381865afa158015610ca5573d6000803e3d6000fd5b505050506040513d601f19601f82011682018060405250810190610cc99190615856565b8160200181815250508373ffffffffffffffffffffffffffffffffffffffff16638dfa9bcc8b846040518363ffffffff1660e01b8152600401610d0d929190615883565b602060405180830381865afa158015610d2a573d6000803e3d6000fd5b505050506040513d601f19601f82011682018060405250810190610d4e9190615856565b8160400181815250505b8260010192505050610a27565b505050509392505050565b60607f000000000000000000000000000000000000000000000000000000000000000073ffffffffffffffffffffffffffffffffffffffff166398fabd3a6040518163ffffffff1660e01b8152600401602060405180830381865afa158015610ddd573d6000803e3d6000fd5b505050506040513d601f19601f82011682018060405250810190610e0191906157b6565b73ffffffffffffffffffffffffffffffffffffffff1663b99b0a0c6040518163ffffffff1660e01b8152600401602060405180830381865afa158015610e4b573d6000803e3d6000fd5b505050506040513d601f19601f82011682018060405250810190610e6f91906157b6565b73ffffffffffffffffffffffffffffffffffffffff1663cf3abaf16040518163ffffffff1660e01b8152600401600060405180830381865afa158015610eb9573d6000803e3d6000fd5b505050506040513d6000823e3d601f19601f82011682018060405250810190610ee291906159bb565b905090565b60007f000000000000000000000000000000000000000000000000000000000000000073ffffffffffffffffffffffffffffffffffffffff166398fabd3a6040518163ffffffff1660e01b8152600401602060405180830381865afa158015610f54573d6000803e3d6000fd5b505050506040513d601f19601f82011682018060405250810190610f7891906157b6565b73ffffffffffffffffffffffffffffffffffffffff16632ab24e496040518163ffffffff1660e01b8152600401602060405180830381865afa158015610fc2573d6000803e3d6000fd5b505050506040513d601f19601f82011682018060405250810190610fe691906157b6565b905090565b606060007f000000000000000000000000000000000000000000000000000000000000000073ffffffffffffffffffffffffffffffffffffffff166398fabd3a6040518163ffffffff1660e01b8152600401602060405180830381865afa15801561105a573d6000803e3d6000fd5b505050506040513d601f19601f8201168201806040525081019061107e91906157b6565b73ffffffffffffffffffffffffffffffffffffffff16639d2cc4366040518163ffffffff1660e01b8152600401602060405180830381865afa1580156110c8573d6000803e3d6000fd5b505050506040513d601f19601f820116820180604052508101906110ec91906157b6565b9050600167ffffffffffffffff811115611109576111086157e3565b5b60405190808252806020026020018201604052801561114257816020015b61112f614691565b8152602001906001900390816111275790505b50915060008260008151811061115b5761115a615812565b5b602002602001015190507f000000000000000000000000000000000000000000000000000000000000000073ffffffffffffffffffffffffffffffffffffffff16630781f4d26040518163ffffffff1660e01b8152600401602060405180830381865afa1580156111d0573d6000803e3d6000fd5b505050506040513d601f19601f820116820180604052508101906111f49190615a30565b8160000190151590811515815250507f000000000000000000000000000000000000000000000000000000000000000073ffffffffffffffffffffffffffffffffffffffff166318160ddd6040518163ffffffff1660e01b8152600401602060405180830381865afa15801561126e573d6000803e3d6000fd5b505050506040513d601f19601f820116820180604052508101906112929190615856565b8160600181815250507f000000000000000000000000000000000000000000000000000000000000000073ffffffffffffffffffffffffffffffffffffffff16636b92a3b66040518163ffffffff1660e01b8152600401602060405180830381865afa158015611306573d6000803e3d6000fd5b505050506040513d601f19601f8201168201806040525081019061132a9190615856565b8160800181815250507f000000000000000000000000000000000000000000000000000000000000000073ffffffffffffffffffffffffffffffffffffffff166370a0823161dead6040518263ffffffff1660e01b815260040161138e919061496e565b602060405180830381865afa1580156113ab573d6000803e3d6000fd5b505050506040513d601f19601f820116820180604052508101906113cf9190615856565b8160a00181815250508173ffffffffffffffffffffffffffffffffffffffff16632267716c6040518163ffffffff1660e01b8152600401602060405180830381865afa158015611423573d6000803e3d6000fd5b505050506040513d601f19601f820116820180604052508101906114479190615a30565b8160200190151590811515815250507f000000000000000000000000000000000000000000000000000000000000000073ffffffffffffffffffffffffffffffffffffffff166370a082317f000000000000000000000000000000000000000000000000000000000000000073ffffffffffffffffffffffffffffffffffffffff166398fabd3a6040518163ffffffff1660e01b8152600401602060405180830381865afa1580156114fd573d6000803e3d6000fd5b505050506040513d601f19601f8201168201806040525081019061152191906157b6565b73ffffffffffffffffffffffffffffffffffffffff16639d2cc4366040518163ffffffff1660e01b8152600401602060405180830381865afa15801561156b573d6000803e3d6000fd5b505050506040513d601f19601f8201168201806040525081019061158f91906157b6565b6040518263ffffffff1660e01b81526004016115ab919061496e565b602060405180830381865afa1580156115c8573d6000803e3d6000fd5b505050506040513d601f19601f820116820180604052508101906115ec9190615856565b8160c00181815250508173ffffffffffffffffffffffffffffffffffffffff1663194e22ce6040518163ffffffff1660e01b8152600401602060405180830381865afa158015611640573d6000803e3d6000fd5b505050506040513d601f19601f820116820180604052508101906116649190615a30565b816040019015159081151581525050505090565b60007f000000000000000000000000000000000000000000000000000000000000000073ffffffffffffffffffffffffffffffffffffffff166398fabd3a6040518163ffffffff1660e01b8152600401602060405180830381865afa1580156116e5573d6000803e3d6000fd5b505050506040513d601f19601f8201168201806040525081019061170991906157b6565b73ffffffffffffffffffffffffffffffffffffffff16632f7fa1806040518163ffffffff1660e01b8152600401602060405180830381865afa158015611753573d6000803e3d6000fd5b505050506040513d601f19601f8201168201806040525081019061177791906157b6565b905090565b6000807f000000000000000000000000000000000000000000000000000000000000000073ffffffffffffffffffffffffffffffffffffffff166398fabd3a6040518163ffffffff1660e01b8152600401602060405180830381865afa1580156117ea573d6000803e3d6000fd5b505050506040513d601f19601f8201168201806040525081019061180e91906157b6565b73ffffffffffffffffffffffffffffffffffffffff1663b99b0a0c6040518163ffffffff1660e01b8152600401602060405180830381865afa158015611858573d6000803e3d6000fd5b505050506040513d601f19601f8201168201806040525081019061187c91906157b6565b73ffffffffffffffffffffffffffffffffffffffff166345f6e4606040518163ffffffff1660e01b8152600401600060405180830381865afa1580156118c6573d6000803e3d6000fd5b505050506040513d6000823e3d601f19601f820116820180604052508101906118ef91906159bb565b905060005b81518110156119c9577f000000000000000000000000000000000000000000000000000000000000000073ffffffffffffffffffffffffffffffffffffffff166370a0823183838151811061194c5761194b615812565b5b60200260200101516040518263ffffffff1660e01b8152600401611970919061496e565b602060405180830381865afa15801561198d573d6000803e3d6000fd5b505050506040513d601f19601f820116820180604052508101906119b19190615856565b836119bc9190615a8c565b92508060010190506118f4565b506002826119d79190615ac0565b91505090565b606060006002805480602002602001604051908101604052809291908181526020018280548015611a6357602002820191906000526020600020905b8160009054906101000a900473ffffffffffffffffffffffffffffffffffffffff1673ffffffffffffffffffffffffffffffffffffffff1681526020019060010190808311611a19575b5050505050905060008151905060007f000000000000000000000000000000000000000000000000000000000000000073ffffffffffffffffffffffffffffffffffffffff166398fabd3a6040518163ffffffff1660e01b8152600401602060405180830381865afa158015611add573d6000803e3d6000fd5b505050506040513d601f19601f82011682018060405250810190611b0191906157b6565b73ffffffffffffffffffffffffffffffffffffffff16632f7fa1806040518163ffffffff1660e01b8152600401602060405180830381865afa158015611b4b573d6000803e3d6000fd5b505050506040513d601f19601f82011682018060405250810190611b6f91906157b6565b90508167ffffffffffffffff811115611b8b57611b8a6157e3565b5b604051908082528060200260200182016040528015611bc457816020015b611bb16146d4565b815260200190600190039081611ba95790505b50935060005b82811015611dc9576000848281518110611be757611be6615812565b5b602002602001015190506000868381518110611c0657611c05615812565b5b6020026020010151905081816000019073ffffffffffffffffffffffffffffffffffffffff16908173ffffffffffffffffffffffffffffffffffffffff16815250508373ffffffffffffffffffffffffffffffffffffffff166389bbd670836040518263ffffffff1660e01b8152600401611c81919061496e565b602060405180830381865afa158015611c9e573d6000803e3d6000fd5b505050506040513d601f19601f82011682018060405250810190611cc29190615856565b816020018181525050600073ffffffffffffffffffffffffffffffffffffffff168873ffffffffffffffffffffffffffffffffffffffff1614611dbc576000806000808773ffffffffffffffffffffffffffffffffffffffff16631b89c1398d886040518363ffffffff1660e01b8152600401611d40929190615883565b608060405180830381865afa158015611d5d573d6000803e3d6000fd5b505050506040513d601f19601f82011682018060405250810190611d819190615b1a565b9350935093509350838560a0019015159081151581525050828560400181815250508185608001818152505080856060018181525050505050505b8260010192505050611bca565b50505050919050565b7f000000000000000000000000000000000000000000000000000000000000000073ffffffffffffffffffffffffffffffffffffffff163373ffffffffffffffffffffffffffffffffffffffff1614611e60576040517f08c379a0000000000000000000000000000000000000000000000000000000008152600401611e5790615bde565b60405180910390fd5b818160029190611e71929190614722565b505050565b7f000000000000000000000000000000000000000000000000000000000000000073ffffffffffffffffffffffffffffffffffffffff163373ffffffffffffffffffffffffffffffffffffffff1614611f04576040517f08c379a0000000000000000000000000000000000000000000000000000000008152600401611efb90615bde565b60405180910390fd5b818160009190611f15929190614722565b505050565b606060007f000000000000000000000000000000000000000000000000000000000000000073ffffffffffffffffffffffffffffffffffffffff166398fabd3a6040518163ffffffff1660e01b8152600401602060405180830381865afa158015611f89573d6000803e3d6000fd5b505050506040513d601f19601f82011682018060405250810190611fad91906157b6565b73ffffffffffffffffffffffffffffffffffffffff166338da7dd66040518163ffffffff1660e01b8152600401602060405180830381865afa158015611ff7573d6000803e3d6000fd5b505050506040513d601f19601f8201168201806040525081019061201b91906157b6565b905060008484905090508067ffffffffffffffff81111561203f5761203e6157e3565b5b60405190808252806020026020018201604052801561207857816020015b6120656147c2565b81526020019060019003908161205d5790505b50925060005b8181101561225357600086868381811061209b5761209a615812565b5b90506020020160208101906120b09190614e64565b905060008583815181106120c7576120c6615812565b5b6020026020010151905081816000019073ffffffffffffffffffffffffffffffffffffffff16908173ffffffffffffffffffffffffffffffffffffffff16815250508473ffffffffffffffffffffffffffffffffffffffff166389bbd670836040518263ffffffff1660e01b8152600401612142919061496e565b602060405180830381865afa15801561215f573d6000803e3d6000fd5b505050506040513d601f19601f820116820180604052508101906121839190615856565b816040018181525050600073ffffffffffffffffffffffffffffffffffffffff168973ffffffffffffffffffffffffffffffffffffffff1614612246578473ffffffffffffffffffffffffffffffffffffffff1663aa9fd374838b6040518363ffffffff1660e01b81526004016121fb929190615883565b602060405180830381865afa158015612218573d6000803e3d6000fd5b505050506040513d601f19601f8201168201806040525081019061223c9190615856565b8160200181815250505b826001019250505061207e565b5050509392505050565b60007f000000000000000000000000000000000000000000000000000000000000000073ffffffffffffffffffffffffffffffffffffffff166398fabd3a6040518163ffffffff1660e01b8152600401602060405180830381865afa1580156122ca573d6000803e3d6000fd5b505050506040513d601f19601f820116820180604052508101906122ee91906157b6565b73ffffffffffffffffffffffffffffffffffffffff16639d2cc4366040518163ffffffff1660e01b8152600401602060405180830381865afa158015612338573d6000803e3d6000fd5b505050506040513d601f19601f8201168201806040525081019061235c91906157b6565b905090565b7f000000000000000000000000000000000000000000000000000000000000000073ffffffffffffffffffffffffffffffffffffffff163373ffffffffffffffffffffffffffffffffffffffff16146123ef576040517f08c379a00000000000000000000000000000000000000000000000000000000081526004016123e690615bde565b60405180910390fd5b818160019190612400929190614722565b505050565b606060007f000000000000000000000000000000000000000000000000000000000000000073ffffffffffffffffffffffffffffffffffffffff166398fabd3a6040518163ffffffff1660e01b8152600401602060405180830381865afa158015612474573d6000803e3d6000fd5b505050506040513d601f19601f8201168201806040525081019061249891906157b6565b9050600167ffffffffffffffff8111156124b5576124b46157e3565b5b6040519080825280602002602001820160405280156124ee57816020015b6124db6147f9565b8152602001906001900390816124d35790505b50915060008260008151811061250757612506615812565b5b602002602001015190508173ffffffffffffffffffffffffffffffffffffffff1663d85bd5266040518163ffffffff1660e01b8152600401602060405180830381865afa15801561255c573d6000803e3d6000fd5b505050506040513d601f19601f820116820180604052508101906125809190615a30565b8160000190151590811515815250508173ffffffffffffffffffffffffffffffffffffffff1663abb6154f6040518163ffffffff1660e01b8152600401602060405180830381865afa1580156125da573d6000803e3d6000fd5b505050506040513d601f19601f820116820180604052508101906125fe9190615856565b8160200181815250508173ffffffffffffffffffffffffffffffffffffffff16632c07eebf6040518163ffffffff1660e01b8152600401602060405180830381865afa158015612652573d6000803e3d6000fd5b505050506040513d601f19601f820116820180604052508101906126769190615856565b8160400181815250508173ffffffffffffffffffffffffffffffffffffffff166379b2dc4c6040518163ffffffff1660e01b8152600401602060405180830381865afa1580156126ca573d6000803e3d6000fd5b505050506040513d601f19601f820116820180604052508101906126ee9190615856565b8160600181815250508173ffffffffffffffffffffffffffffffffffffffff16632957b8396040518163ffffffff1660e01b8152600401602060405180830381865afa158015612742573d6000803e3d6000fd5b505050506040513d601f19601f820116820180604052508101906127669190615856565b8160800181815250508173ffffffffffffffffffffffffffffffffffffffff16632b49d4256040518163ffffffff1660e01b8152600401602060405180830381865afa1580156127ba573d6000803e3d6000fd5b505050506040513d601f19601f820116820180604052508101906127de9190615856565b8160a00181815250508173ffffffffffffffffffffffffffffffffffffffff166385d2b9166040518163ffffffff1660e01b8152600401602060405180830381865afa158015612832573d6000803e3d6000fd5b505050506040513d601f19601f820116820180604052508101906128569190615856565b8160c0018181525050505090565b600080600090505b83839050811015612950577f000000000000000000000000000000000000000000000000000000000000000073ffffffffffffffffffffffffffffffffffffffff166370a082318585848181106128c6576128c5615812565b5b90506020020160208101906128db9190614e64565b6040518263ffffffff1660e01b81526004016128f7919061496e565b602060405180830381865afa158015612914573d6000803e3d6000fd5b505050506040513d601f19601f820116820180604052508101906129389190615856565b826129439190615a8c565b915080600101905061286c565b5060028161295e9190615ac0565b905092915050565b6001818154811061297657600080fd5b906000526020600020016000915054906101000a900473ffffffffffffffffffffffffffffffffffffffff1681565b60607f000000000000000000000000000000000000000000000000000000000000000073ffffffffffffffffffffffffffffffffffffffff166398fabd3a6040518163ffffffff1660e01b8152600401602060405180830381865afa158015612a12573d6000803e3d6000fd5b505050506040513d601f19601f82011682018060405250810190612a3691906157b6565b73ffffffffffffffffffffffffffffffffffffffff1663b99b0a0c6040518163ffffffff1660e01b8152600401602060405180830381865afa158015612a80573d6000803e3d6000fd5b505050506040513d601f19601f82011682018060405250810190612aa491906157b6565b73ffffffffffffffffffffffffffffffffffffffff166345f6e4606040518163ffffffff1660e01b8152600401600060405180830381865afa158015612aee573d6000803e3d6000fd5b505050506040513d6000823e3d601f19601f82011682018060405250810190612b1791906159bb565b905090565b7f000000000000000000000000000000000000000000000000000000000000000081565b7f000000000000000000000000000000000000000000000000000000000000000081565b60007f000000000000000000000000000000000000000000000000000000000000000073ffffffffffffffffffffffffffffffffffffffff166370a082317f000000000000000000000000000000000000000000000000000000000000000073ffffffffffffffffffffffffffffffffffffffff166398fabd3a6040518163ffffffff1660e01b8152600401602060405180830381865afa158015612c0d573d6000803e3d6000fd5b505050506040513d601f19601f82011682018060405250810190612c3191906157b6565b73ffffffffffffffffffffffffffffffffffffffff16639d2cc4366040518163ffffffff1660e01b8152600401602060405180830381865afa158015612c7b573d6000803e3d6000fd5b505050506040513d601f19601f82011682018060405250810190612c9f91906157b6565b6040518263ffffffff1660e01b8152600401612cbb919061496e565b602060405180830381865afa158015612cd8573d6000803e3d6000fd5b505050506040513d601f19601f82011682018060405250810190612cfc9190615856565b7f000000000000000000000000000000000000000000000000000000000000000073ffffffffffffffffffffffffffffffffffffffff166370a0823161dead6040518263ffffffff1660e01b8152600401612d57919061496e565b602060405180830381865afa158015612d74573d6000803e3d6000fd5b505050506040513d601f19601f82011682018060405250810190612d989190615856565b7f000000000000000000000000000000000000000000000000000000000000000073ffffffffffffffffffffffffffffffffffffffff166318160ddd6040518163ffffffff1660e01b8152600401602060405180830381865afa158015612e03573d6000803e3d6000fd5b505050506040513d601f19601f82011682018060405250810190612e279190615856565b612e319190615bfe565b612e3b9190615bfe565b90506000612e47612e91565b905060005b8151811015612e8c57818181518110612e6857612e67615812565b5b602002602001015160a0015183612e7f9190615bfe565b9250806001019050612e4c565b505090565b606060006001805480602002602001604051908101604052809291908181526020018280548015612f1757602002820191906000526020600020905b8160009054906101000a900473ffffffffffffffffffffffffffffffffffffffff1673ffffffffffffffffffffffffffffffffffffffff1681526020019060010190808311612ecd575b505050505090506000815190508067ffffffffffffffff811115612f3e57612f3d6157e3565b5b604051908082528060200260200182016040528015612f7757816020015b612f64614838565b815260200190600190039081612f5c5790505b50925060005b81811015613347576000838281518110612f9a57612f99615812565b5b602002602001015190506000858381518110612fb957612fb8615812565b5b6020026020010151905081816000019073ffffffffffffffffffffffffffffffffffffffff16908173ffffffffffffffffffffffffffffffffffffffff168152505060008273ffffffffffffffffffffffffffffffffffffffff166370a082317f000000000000000000000000000000000000000000000000000000000000000073ffffffffffffffffffffffffffffffffffffffff166398fabd3a6040518163ffffffff1660e01b8152600401602060405180830381865afa158015613084573d6000803e3d6000fd5b505050506040513d601f19601f820116820180604052508101906130a891906157b6565b73ffffffffffffffffffffffffffffffffffffffff16639d2cc4366040518163ffffffff1660e01b8152600401602060405180830381865afa1580156130f2573d6000803e3d6000fd5b505050506040513d601f19601f8201168201806040525081019061311691906157b6565b6040518263ffffffff1660e01b8152600401613132919061496e565b602060405180830381865afa15801561314f573d6000803e3d6000fd5b505050506040513d601f19601f820116820180604052508101906131739190615856565b905060008373ffffffffffffffffffffffffffffffffffffffff166318160ddd6040518163ffffffff1660e01b8152600401602060405180830381865afa1580156131c2573d6000803e3d6000fd5b505050506040513d601f19601f820116820180604052508101906131e69190615856565b905060008473ffffffffffffffffffffffffffffffffffffffff16634864d1406040518163ffffffff1660e01b8152600401602060405180830381865afa158015613235573d6000803e3d6000fd5b505050506040513d601f19601f820116820180604052508101906132599190615856565b905060008573ffffffffffffffffffffffffffffffffffffffff1663eec7faa16040518163ffffffff1660e01b8152600401602060405180830381865afa1580156132a8573d6000803e3d6000fd5b505050506040513d601f19601f820116820180604052508101906132cc9190615856565b9050828560200181815250508185604001818152505080856060018181525050838560800181815250508284836133039190615ac0565b61330d9190615c61565b8560a00181815250508284826133239190615ac0565b61332d9190615c61565b8560c0018181525050866001019650505050505050612f7d565b50505090565b6000818154811061335d57600080fd5b906000526020600020016000915054906101000a900473ffffffffffffffffffffffffffffffffffffffff1681565b60007f000000000000000000000000000000000000000000000000000000000000000073ffffffffffffffffffffffffffffffffffffffff166398fabd3a6040518163ffffffff1660e01b8152600401602060405180830381865afa1580156133f9573d6000803e3d6000fd5b505050506040513d601f19601f8201168201806040525081019061341d91906157b6565b73ffffffffffffffffffffffffffffffffffffffff166338da7dd66040518163ffffffff1660e01b8152600401602060405180830381865afa158015613467573d6000803e3d6000fd5b505050506040513d601f19601f8201168201806040525081019061348b91906157b6565b905090565b60007f000000000000000000000000000000000000000000000000000000000000000073ffffffffffffffffffffffffffffffffffffffff166370a0823161dead6040518263ffffffff1660e01b81526004016134ed919061496e565b602060405180830381865afa15801561350a573d6000803e3d6000fd5b505050506040513d601f19601f8201168201806040525081019061352e9190615856565b7f000000000000000000000000000000000000000000000000000000000000000073ffffffffffffffffffffffffffffffffffffffff166318160ddd6040518163ffffffff1660e01b8152600401602060405180830381865afa158015613599573d6000803e3d6000fd5b505050506040513d601f19601f820116820180604052508101906135bd9190615856565b6135c79190615bfe565b905090565b606060008383905090508067ffffffffffffffff8111156135f0576135ef6157e3565b5b60405190808252806020026020018201604052801561362957816020015b61361661488b565b81526020019060019003908161360e5790505b50915060005b81811015613c435760007f000000000000000000000000000000000000000000000000000000000000000073ffffffffffffffffffffffffffffffffffffffff166398fabd3a6040518163ffffffff1660e01b8152600401602060405180830381865afa1580156136a4573d6000803e3d6000fd5b505050506040513d601f19601f820116820180604052508101906136c891906157b6565b73ffffffffffffffffffffffffffffffffffffffff1663b99b0a0c6040518163ffffffff1660e01b8152600401602060405180830381865afa158015613712573d6000803e3d6000fd5b505050506040513d601f19601f8201168201806040525081019061373691906157b6565b73ffffffffffffffffffffffffffffffffffffffff1663bbe4f6db87878581811061376457613763615812565b5b90506020020160208101906137799190614e64565b6040518263ffffffff1660e01b8152600401613795919061496e565b602060405180830381865afa1580156137b2573d6000803e3d6000fd5b505050506040513d601f19601f820116820180604052508101906137d691906157b6565b905060008483815181106137ed576137ec615812565b5b602002602001015190508181610100019073ffffffffffffffffffffffffffffffffffffffff16908173ffffffffffffffffffffffffffffffffffffffff16815250508173ffffffffffffffffffffffffffffffffffffffff166362a5af3b6040518163ffffffff1660e01b8152600401602060405180830381865afa15801561387b573d6000803e3d6000fd5b505050506040513d601f19601f8201168201806040525081019061389f9190615a30565b8160000190151590811515815250508173ffffffffffffffffffffffffffffffffffffffff1663a7f0b3de6040518163ffffffff1660e01b8152600401602060405180830381865afa1580156138f9573d6000803e3d6000fd5b505050506040513d601f19601f8201168201806040525081019061391d9190615856565b8160200181815250508173ffffffffffffffffffffffffffffffffffffffff16634864d1406040518163ffffffff1660e01b8152600401602060405180830381865afa158015613971573d6000803e3d6000fd5b505050506040513d601f19601f820116820180604052508101906139959190615856565b8160400181815250508173ffffffffffffffffffffffffffffffffffffffff1663eec7faa16040518163ffffffff1660e01b8152600401602060405180830381865afa1580156139e9573d6000803e3d6000fd5b505050506040513d601f19601f82011682018060405250810190613a0d9190615856565b8160600181815250508173ffffffffffffffffffffffffffffffffffffffff166318160ddd6040518163ffffffff1660e01b8152600401602060405180830381865afa158015613a61573d6000803e3d6000fd5b505050506040513d601f19601f82011682018060405250810190613a859190615856565b8160800181815250508173ffffffffffffffffffffffffffffffffffffffff1663cbbcf8026040518163ffffffff1660e01b8152600401602060405180830381865afa158015613ad9573d6000803e3d6000fd5b505050506040513d601f19601f82011682018060405250810190613afd9190615856565b8160a0018181525050600073ffffffffffffffffffffffffffffffffffffffff168873ffffffffffffffffffffffffffffffffffffffff1614613bbe578173ffffffffffffffffffffffffffffffffffffffff166370a08231896040518263ffffffff1660e01b8152600401613b73919061496e565b602060405180830381865afa158015613b90573d6000803e3d6000fd5b505050506040513d601f19601f82011682018060405250810190613bb49190615856565b8160c00181815250505b8173ffffffffffffffffffffffffffffffffffffffff1663a861ad296040518163ffffffff1660e01b8152600401602060405180830381865afa158015613c09573d6000803e3d6000fd5b505050506040513d601f19601f82011682018060405250810190613c2d9190615856565b8160e0018181525050826001019250505061362f565b50509392505050565b60028181548110613c5c57600080fd5b906000526020600020016000915054906101000a900473ffffffffffffffffffffffffffffffffffffffff1681565b6000806000805480602002602001604051908101604052809291908181526020018280548015613d1057602002820191906000526020600020905b8160009054906101000a900473ffffffffffffffffffffffffffffffffffffffff1673ffffffffffffffffffffffffffffffffffffffff1681526020019060010190808311613cc6575b505050505090506000815111613d5b576040517f08c379a0000000000000000000000000000000000000000000000000000000008152600401613d5290615cde565b60405180910390fd5b600081600081518110613d7157613d70615812565b5b602002602001015190508073ffffffffffffffffffffffffffffffffffffffff16634864d1406040518163ffffffff1660e01b8152600401602060405180830381865afa158015613dc6573d6000803e3d6000fd5b505050506040513d601f19601f82011682018060405250810190613dea9190615856565b670de0b6b3a76400008273ffffffffffffffffffffffffffffffffffffffff1663eec7faa16040518163ffffffff1660e01b8152600401602060405180830381865afa158015613e3e573d6000803e3d6000fd5b505050506040513d601f19601f82011682018060405250810190613e629190615856565b613e6c9190615ac0565b613e769190615c61565b92506000600190505b8251811015613fc457828181518110613e9b57613e9a615812565b5b602002602001015191506002848373ffffffffffffffffffffffffffffffffffffffff16634864d1406040518163ffffffff1660e01b8152600401602060405180830381865afa158015613ef3573d6000803e3d6000fd5b505050506040513d601f19601f82011682018060405250810190613f179190615856565b670de0b6b3a76400008573ffffffffffffffffffffffffffffffffffffffff1663eec7faa16040518163ffffffff1660e01b8152600401602060405180830381865afa158015613f6b573d6000803e3d6000fd5b505050506040513d601f19601f82011682018060405250810190613f8f9190615856565b613f999190615ac0565b613fa39190615c61565b613fad9190615a8c565b613fb79190615c61565b9350806001019050613e7f565b50505090565b606060008383905090508067ffffffffffffffff811115613fee57613fed6157e3565b5b60405190808252806020026020018201604052801561402757816020015b6140146148ef565b81526020019060019003908161400c5790505b50915060005b818110156143c857600085858381811061404a57614049615812565b5b905060200201602081019061405f9190614e64565b9050600084838151811061407657614075615812565b5b602002602001015190507f000000000000000000000000000000000000000000000000000000000000000073ffffffffffffffffffffffffffffffffffffffff168273ffffffffffffffffffffffffffffffffffffffff1614806141065750600073ffffffffffffffffffffffffffffffffffffffff168273ffffffffffffffffffffffffffffffffffffffff16145b156141595760128160000181815250506040518060400160405280600481526020017f57424e42000000000000000000000000000000000000000000000000000000008152508160400181905250614251565b8173ffffffffffffffffffffffffffffffffffffffff1663313ce5676040518163ffffffff1660e01b8152600401602060405180830381865afa1580156141a4573d6000803e3d6000fd5b505050506040513d601f19601f820116820180604052508101906141c89190615d37565b60ff168160000181815250508173ffffffffffffffffffffffffffffffffffffffff166395d89b416040518163ffffffff1660e01b8152600401600060405180830381865afa15801561421f573d6000803e3d6000fd5b505050506040513d6000823e3d601f19601f820116820180604052508101906142489190615e0a565b81604001819052505b600073ffffffffffffffffffffffffffffffffffffffff168873ffffffffffffffffffffffffffffffffffffffff16146143bb577f000000000000000000000000000000000000000000000000000000000000000073ffffffffffffffffffffffffffffffffffffffff168273ffffffffffffffffffffffffffffffffffffffff16148061430b5750600073ffffffffffffffffffffffffffffffffffffffff168273ffffffffffffffffffffffffffffffffffffffff16145b15614336578773ffffffffffffffffffffffffffffffffffffffff16318160200181815250506143ba565b8173ffffffffffffffffffffffffffffffffffffffff166370a08231896040518263ffffffff1660e01b815260040161436f919061496e565b602060405180830381865afa15801561438c573d6000803e3d6000fd5b505050506040513d601f19601f820116820180604052508101906143b09190615856565b8160200181815250505b5b826001019250505061402d565b50509392505050565b60007f000000000000000000000000000000000000000000000000000000000000000073ffffffffffffffffffffffffffffffffffffffff166398fabd3a6040518163ffffffff1660e01b8152600401602060405180830381865afa15801561443e573d6000803e3d6000fd5b505050506040513d601f19601f8201168201806040525081019061446291906157b6565b73ffffffffffffffffffffffffffffffffffffffff1663b93ec54b6040518163ffffffff1660e01b8152600401602060405180830381865afa1580156144ac573d6000803e3d6000fd5b505050506040513d601f19601f820116820180604052508101906144d091906157b6565b905090565b60607f000000000000000000000000000000000000000000000000000000000000000073ffffffffffffffffffffffffffffffffffffffff166398fabd3a6040518163ffffffff1660e01b8152600401602060405180830381865afa158015614542573d6000803e3d6000fd5b505050506040513d601f19601f8201168201806040525081019061456691906157b6565b73ffffffffffffffffffffffffffffffffffffffff1663b99b0a0c6040518163ffffffff1660e01b8152600401602060405180830381865afa1580156145b0573d6000803e3d6000fd5b505050506040513d601f19601f820116820180604052508101906145d491906157b6565b73ffffffffffffffffffffffffffffffffffffffff1663abc764da6040518163ffffffff1660e01b8152600401600060405180830381865afa15801561461e573d6000803e3d6000fd5b505050506040513d6000823e3d601f19601f8201168201806040525081019061464791906159bb565b905090565b6040518060a00160405280600073ffffffffffffffffffffffffffffffffffffffff168152602001600081526020016000815260200160008152602001600081525090565b6040518060e00160405280600015158152602001600015158152602001600015158152602001600081526020016000815260200160008152602001600081525090565b6040518060c00160405280600073ffffffffffffffffffffffffffffffffffffffff168152602001600081526020016000815260200160008152602001600081526020016000151581525090565b8280548282559060005260206000209081019282156147b1579160200282015b828111156147b057823573ffffffffffffffffffffffffffffffffffffffff168260006101000a81548173ffffffffffffffffffffffffffffffffffffffff021916908373ffffffffffffffffffffffffffffffffffffffff16021790555091602001919060010190614742565b5b5090506147be9190614910565b5090565b6040518060600160405280600073ffffffffffffffffffffffffffffffffffffffff16815260200160008152602001600081525090565b6040518060e001604052806000151581526020016000815260200160008152602001600081526020016000815260200160008152602001600081525090565b6040518060e00160405280600073ffffffffffffffffffffffffffffffffffffffff1681526020016000815260200160008152602001600081526020016000815260200160008152602001600081525090565b60405180610120016040528060001515815260200160008152602001600081526020016000815260200160008152602001600081526020016000815260200160008152602001600073ffffffffffffffffffffffffffffffffffffffff1681525090565b60405180606001604052806000815260200160008152602001606081525090565b5b80821115614929576000816000905550600101614911565b5090565b600073ffffffffffffffffffffffffffffffffffffffff82169050919050565b60006149588261492d565b9050919050565b6149688161494d565b82525050565b6000602082019050614983600083018461495f565b92915050565b6000604051905090565b600080fd5b600080fd5b6149a68161494d565b81146149b157600080fd5b50565b6000813590506149c38161499d565b92915050565b600080fd5b600080fd5b600080fd5b60008083601f8401126149ee576149ed6149c9565b5b8235905067ffffffffffffffff811115614a0b57614a0a6149ce565b5b602083019150836020820283011115614a2757614a266149d3565b5b9250929050565b600080600060408486031215614a4757614a46614993565b5b6000614a55868287016149b4565b935050602084013567ffffffffffffffff811115614a7657614a75614998565b5b614a82868287016149d8565b92509250509250925092565b600081519050919050565b600082825260208201905092915050565b6000819050602082019050919050565b614ac38161494d565b82525050565b6000819050919050565b614adc81614ac9565b82525050565b60a082016000820151614af86000850182614aba565b506020820151614b0b6020850182614ad3565b506040820151614b1e6040850182614ad3565b506060820151614b316060850182614ad3565b506080820151614b446080850182614ad3565b50505050565b6000614b568383614ae2565b60a08301905092915050565b6000602082019050919050565b6000614b7a82614a8e565b614b848185614a99565b9350614b8f83614aaa565b8060005b83811015614bc0578151614ba78882614b4a565b9750614bb283614b62565b925050600181019050614b93565b5085935050505092915050565b60006020820190508181036000830152614be78184614b6f565b905092915050565b600081519050919050565b600082825260208201905092915050565b6000819050602082019050919050565b6000614c278383614aba565b60208301905092915050565b6000602082019050919050565b6000614c4b82614bef565b614c558185614bfa565b9350614c6083614c0b565b8060005b83811015614c91578151614c788882614c1b565b9750614c8383614c33565b925050600181019050614c64565b5085935050505092915050565b60006020820190508181036000830152614cb88184614c40565b905092915050565b600081519050919050565b600082825260208201905092915050565b6000819050602082019050919050565b60008115159050919050565b614d0181614cec565b82525050565b60e082016000820151614d1d6000850182614cf8565b506020820151614d306020850182614cf8565b506040820151614d436040850182614cf8565b506060820151614d566060850182614ad3565b506080820151614d696080850182614ad3565b5060a0820151614d7c60a0850182614ad3565b5060c0820151614d8f60c0850182614ad3565b50505050565b6000614da18383614d07565b60e08301905092915050565b6000602082019050919050565b6000614dc582614cc0565b614dcf8185614ccb565b9350614dda83614cdc565b8060005b83811015614e0b578151614df28882614d95565b9750614dfd83614dad565b925050600181019050614dde565b5085935050505092915050565b60006020820190508181036000830152614e328184614dba565b905092915050565b614e4381614ac9565b82525050565b6000602082019050614e5e6000830184614e3a565b92915050565b600060208284031215614e7a57614e79614993565b5b6000614e88848285016149b4565b91505092915050565b600081519050919050565b600082825260208201905092915050565b6000819050602082019050919050565b60c082016000820151614ed36000850182614aba565b506020820151614ee66020850182614ad3565b506040820151614ef96040850182614ad3565b506060820151614f0c6060850182614ad3565b506080820151614f1f6080850182614ad3565b5060a0820151614f3260a0850182614cf8565b50505050565b6000614f448383614ebd565b60c08301905092915050565b6000602082019050919050565b6000614f6882614e91565b614f728185614e9c565b9350614f7d83614ead565b8060005b83811015614fae578151614f958882614f38565b9750614fa083614f50565b925050600181019050614f81565b5085935050505092915050565b60006020820190508181036000830152614fd58184614f5d565b905092915050565b60008060208385031215614ff457614ff3614993565b5b600083013567ffffffffffffffff81111561501257615011614998565b5b61501e858286016149d8565b92509250509250929050565b600081519050919050565b600082825260208201905092915050565b6000819050602082019050919050565b60608201600082015161506c6000850182614aba565b50602082015161507f6020850182614ad3565b5060408201516150926040850182614ad3565b50505050565b60006150a48383615056565b60608301905092915050565b6000602082019050919050565b60006150c88261502a565b6150d28185615035565b93506150dd83615046565b8060005b8381101561510e5781516150f58882615098565b9750615100836150b0565b9250506001810190506150e1565b5085935050505092915050565b6000602082019050818103600083015261513581846150bd565b905092915050565b600081519050919050565b600082825260208201905092915050565b6000819050602082019050919050565b60e08201600082015161517f6000850182614cf8565b5060208201516151926020850182614ad3565b5060408201516151a56040850182614ad3565b5060608201516151b86060850182614ad3565b5060808201516151cb6080850182614ad3565b5060a08201516151de60a0850182614ad3565b5060c08201516151f160c0850182614ad3565b50505050565b60006152038383615169565b60e08301905092915050565b6000602082019050919050565b60006152278261513d565b6152318185615148565b935061523c83615159565b8060005b8381101561526d57815161525488826151f7565b975061525f8361520f565b925050600181019050615240565b5085935050505092915050565b60006020820190508181036000830152615294818461521c565b905092915050565b6152a581614ac9565b81146152b057600080fd5b50565b6000813590506152c28161529c565b92915050565b6000602082840312156152de576152dd614993565b5b60006152ec848285016152b3565b91505092915050565b600081519050919050565b600082825260208201905092915050565b6000819050602082019050919050565b60e0820160008201516153376000850182614aba565b50602082015161534a6020850182614ad3565b50604082015161535d6040850182614ad3565b5060608201516153706060850182614ad3565b5060808201516153836080850182614ad3565b5060a082015161539660a0850182614ad3565b5060c08201516153a960c0850182614ad3565b50505050565b60006153bb8383615321565b60e08301905092915050565b6000602082019050919050565b60006153df826152f5565b6153e98185615300565b93506153f483615311565b8060005b8381101561542557815161540c88826153af565b9750615417836153c7565b9250506001810190506153f8565b5085935050505092915050565b6000602082019050818103600083015261544c81846153d4565b905092915050565b600081519050919050565b600082825260208201905092915050565b6000819050602082019050919050565b610120820160008201516154976000850182614cf8565b5060208201516154aa6020850182614ad3565b5060408201516154bd6040850182614ad3565b5060608201516154d06060850182614ad3565b5060808201516154e36080850182614ad3565b5060a08201516154f660a0850182614ad3565b5060c082015161550960c0850182614ad3565b5060e082015161551c60e0850182614ad3565b50610100820151615531610100850182614aba565b50505050565b60006155438383615480565b6101208301905092915050565b6000602082019050919050565b600061556882615454565b615572818561545f565b935061557d83615470565b8060005b838110156155ae5781516155958882615537565b97506155a083615550565b925050600181019050615581565b5085935050505092915050565b600060208201905081810360008301526155d5818461555d565b905092915050565b600081519050919050565b600082825260208201905092915050565b6000819050602082019050919050565b600081519050919050565b600082825260208201905092915050565b60005b83811015615643578082015181840152602081019050615628565b60008484015250505050565b6000601f19601f8301169050919050565b600061566b82615609565b6156758185615614565b9350615685818560208601615625565b61568e8161564f565b840191505092915050565b60006060830160008301516156b16000860182614ad3565b5060208301516156c46020860182614ad3565b50604083015184820360408601526156dc8282615660565b9150508091505092915050565b60006156f58383615699565b905092915050565b6000602082019050919050565b6000615715826155dd565b61571f81856155e8565b935083602082028501615731856155f9565b8060005b8581101561576d578484038952815161574e85826156e9565b9450615759836156fd565b925060208a01995050600181019050615735565b50829750879550505050505092915050565b60006020820190508181036000830152615799818461570a565b905092915050565b6000815190506157b08161499d565b92915050565b6000602082840312156157cc576157cb614993565b5b60006157da848285016157a1565b91505092915050565b7f4e487b7100000000000000000000000000000000000000000000000000000000600052604160045260246000fd5b7f4e487b7100000000000000000000000000000000000000000000000000000000600052603260045260246000fd5b6000815190506158508161529c565b92915050565b60006020828403121561586c5761586b614993565b5b600061587a84828501615841565b91505092915050565b6000604082019050615898600083018561495f565b6158a5602083018461495f565b9392505050565b6158b58261564f565b810181811067ffffffffffffffff821117156158d4576158d36157e3565b5b80604052505050565b60006158e7614989565b90506158f382826158ac565b919050565b600067ffffffffffffffff821115615913576159126157e3565b5b602082029050602081019050919050565b6000615937615932846158f8565b6158dd565b9050808382526020820190506020840283018581111561595a576159596149d3565b5b835b81811015615983578061596f88826157a1565b84526020840193505060208101905061595c565b5050509392505050565b600082601f8301126159a2576159a16149c9565b5b81516159b2848260208601615924565b91505092915050565b6000602082840312156159d1576159d0614993565b5b600082015167ffffffffffffffff8111156159ef576159ee614998565b5b6159fb8482850161598d565b91505092915050565b615a0d81614cec565b8114615a1857600080fd5b50565b600081519050615a2a81615a04565b92915050565b600060208284031215615a4657615a45614993565b5b6000615a5484828501615a1b565b91505092915050565b7f4e487b7100000000000000000000000000000000000000000000000000000000600052601160045260246000fd5b6000615a9782614ac9565b9150615aa283614ac9565b9250828201905080821115615aba57615ab9615a5d565b5b92915050565b6000615acb82614ac9565b9150615ad683614ac9565b9250817fffffffffffffffffffffffffffffffffffffffffffffffffffffffffffffffff0483118215151615615b0f57615b0e615a5d565b5b828202905092915050565b60008060008060808587031215615b3457615b33614993565b5b6000615b4287828801615a1b565b9450506020615b5387828801615841565b9350506040615b6487828801615841565b9250506060615b7587828801615841565b91505092959194509250565b600082825260208201905092915050565b7f2141555448000000000000000000000000000000000000000000000000000000600082015250565b6000615bc8600583615b81565b9150615bd382615b92565b602082019050919050565b60006020820190508181036000830152615bf781615bbb565b9050919050565b6000615c0982614ac9565b9150615c1483614ac9565b9250828203905081811115615c2c57615c2b615a5d565b5b92915050565b7f4e487b7100000000000000000000000000000000000000000000000000000000600052601260045260246000fd5b6000615c6c82614ac9565b9150615c7783614ac9565b925082615c8757615c86615c32565b5b828204905092915050565b7f21537461626c6541727261790000000000000000000000000000000000000000600082015250565b6000615cc8600c83615b81565b9150615cd382615c92565b602082019050919050565b60006020820190508181036000830152615cf781615cbb565b9050919050565b600060ff82169050919050565b615d1481615cfe565b8114615d1f57600080fd5b50565b600081519050615d3181615d0b565b92915050565b600060208284031215615d4d57615d4c614993565b5b6000615d5b84828501615d22565b91505092915050565b600080fd5b600067ffffffffffffffff821115615d8457615d836157e3565b5b615d8d8261564f565b9050602081019050919050565b6000615dad615da884615d69565b6158dd565b905082815260208101848484011115615dc957615dc8615d64565b5b615dd4848285615625565b509392505050565b600082601f830112615df157615df06149c9565b5b8151615e01848260208601615d9a565b91505092915050565b600060208284031215615e2057615e1f614993565b5b600082015167ffffffffffffffff811115615e3e57615e3d614998565b5b615e4a84828501615ddc565b9150509291505056fea264697066735822122097bb23017fea3f4eb2bc5ba26eb656712b0d4515470bdae0aa387c56cd270bf464736f6c63430008100033",
  "linkReferences": {},
  "deployedLinkReferences": {}
}